{
  "_format": "hh-sol-artifact-1",
  "contractName": "AfriCoinToken",
  "sourceName": "contracts/AfriCoinToken.sol",
  "abi": [
    {
      "inputs": [],
      "stateMutability": "nonpayable",
      "type": "constructor"
    },
    {
      "inputs": [],
      "name": "ECDSAInvalidSignature",
      "type": "error"
    },
    {
      "inputs": [
        {
          "internalType": "uint256",
          "name": "length",
          "type": "uint256"
        }
      ],
      "name": "ECDSAInvalidSignatureLength",
      "type": "error"
    },
    {
      "inputs": [
        {
          "internalType": "bytes32",
          "name": "s",
          "type": "bytes32"
        }
      ],
      "name": "ECDSAInvalidSignatureS",
      "type": "error"
    },
    {
      "inputs": [
        {
          "internalType": "address",
          "name": "spender",
          "type": "address"
        },
        {
          "internalType": "uint256",
          "name": "allowance",
          "type": "uint256"
        },
        {
          "internalType": "uint256",
          "name": "needed",
          "type": "uint256"
        }
      ],
      "name": "ERC20InsufficientAllowance",
      "type": "error"
    },
    {
      "inputs": [
        {
          "internalType": "address",
          "name": "sender",
          "type": "address"
        },
        {
          "internalType": "uint256",
          "name": "balance",
          "type": "uint256"
        },
        {
          "internalType": "uint256",
          "name": "needed",
          "type": "uint256"
        }
      ],
      "name": "ERC20InsufficientBalance",
      "type": "error"
    },
    {
      "inputs": [
        {
          "internalType": "address",
          "name": "approver",
          "type": "address"
        }
      ],
      "name": "ERC20InvalidApprover",
      "type": "error"
    },
    {
      "inputs": [
        {
          "internalType": "address",
          "name": "receiver",
          "type": "address"
        }
      ],
      "name": "ERC20InvalidReceiver",
      "type": "error"
    },
    {
      "inputs": [
        {
          "internalType": "address",
          "name": "sender",
          "type": "address"
        }
      ],
      "name": "ERC20InvalidSender",
      "type": "error"
    },
    {
      "inputs": [
        {
          "internalType": "address",
          "name": "spender",
          "type": "address"
        }
      ],
      "name": "ERC20InvalidSpender",
      "type": "error"
    },
    {
      "inputs": [
        {
          "internalType": "uint256",
          "name": "deadline",
          "type": "uint256"
        }
      ],
      "name": "ERC2612ExpiredSignature",
      "type": "error"
    },
    {
      "inputs": [
        {
          "internalType": "address",
          "name": "signer",
          "type": "address"
        },
        {
          "internalType": "address",
          "name": "owner",
          "type": "address"
        }
      ],
      "name": "ERC2612InvalidSigner",
      "type": "error"
    },
    {
      "inputs": [
        {
          "internalType": "address",
          "name": "account",
          "type": "address"
        },
        {
          "internalType": "uint256",
          "name": "currentNonce",
          "type": "uint256"
        }
      ],
      "name": "InvalidAccountNonce",
      "type": "error"
    },
    {
      "inputs": [],
      "name": "InvalidShortString",
      "type": "error"
    },
    {
      "inputs": [
        {
          "internalType": "address",
          "name": "owner",
          "type": "address"
        }
      ],
      "name": "OwnableInvalidOwner",
      "type": "error"
    },
    {
      "inputs": [
        {
          "internalType": "address",
          "name": "account",
          "type": "address"
        }
      ],
      "name": "OwnableUnauthorizedAccount",
      "type": "error"
    },
    {
      "inputs": [
        {
          "internalType": "string",
          "name": "str",
          "type": "string"
        }
      ],
      "name": "StringTooLong",
      "type": "error"
    },
    {
      "anonymous": false,
      "inputs": [
        {
          "indexed": true,
          "internalType": "address",
          "name": "owner",
          "type": "address"
        },
        {
          "indexed": true,
          "internalType": "address",
          "name": "spender",
          "type": "address"
        },
        {
          "indexed": false,
          "internalType": "uint256",
          "name": "value",
          "type": "uint256"
        }
      ],
      "name": "Approval",
      "type": "event"
    },
    {
      "anonymous": false,
      "inputs": [],
      "name": "EIP712DomainChanged",
      "type": "event"
    },
    {
      "anonymous": false,
      "inputs": [
        {
          "indexed": true,
          "internalType": "address",
          "name": "previousOwner",
          "type": "address"
        },
        {
          "indexed": true,
          "internalType": "address",
          "name": "newOwner",
          "type": "address"
        }
      ],
      "name": "OwnershipTransferred",
      "type": "event"
    },
    {
      "anonymous": false,
      "inputs": [
        {
          "indexed": true,
          "internalType": "address",
          "name": "from",
          "type": "address"
        },
        {
          "indexed": true,
          "internalType": "address",
          "name": "to",
          "type": "address"
        },
        {
          "indexed": false,
          "internalType": "uint256",
          "name": "value",
          "type": "uint256"
        }
      ],
      "name": "Transfer",
      "type": "event"
    },
    {
      "inputs": [],
      "name": "DOMAIN_SEPARATOR",
      "outputs": [
        {
          "internalType": "bytes32",
          "name": "",
          "type": "bytes32"
        }
      ],
      "stateMutability": "view",
      "type": "function"
    },
    {
      "inputs": [
        {
          "internalType": "address",
          "name": "owner",
          "type": "address"
        },
        {
          "internalType": "address",
          "name": "spender",
          "type": "address"
        }
      ],
      "name": "allowance",
      "outputs": [
        {
          "internalType": "uint256",
          "name": "",
          "type": "uint256"
        }
      ],
      "stateMutability": "view",
      "type": "function"
    },
    {
      "inputs": [
        {
          "internalType": "address",
          "name": "spender",
          "type": "address"
        },
        {
          "internalType": "uint256",
          "name": "value",
          "type": "uint256"
        }
      ],
      "name": "approve",
      "outputs": [
        {
          "internalType": "bool",
          "name": "",
          "type": "bool"
        }
      ],
      "stateMutability": "nonpayable",
      "type": "function"
    },
    {
      "inputs": [
        {
          "internalType": "address",
          "name": "account",
          "type": "address"
        }
      ],
      "name": "balanceOf",
      "outputs": [
        {
          "internalType": "uint256",
          "name": "",
          "type": "uint256"
        }
      ],
      "stateMutability": "view",
      "type": "function"
    },
    {
      "inputs": [
        {
          "internalType": "uint256",
          "name": "value",
          "type": "uint256"
        }
      ],
      "name": "burn",
      "outputs": [],
      "stateMutability": "nonpayable",
      "type": "function"
    },
    {
      "inputs": [
        {
          "internalType": "address",
          "name": "account",
          "type": "address"
        },
        {
          "internalType": "uint256",
          "name": "value",
          "type": "uint256"
        }
      ],
      "name": "burnFrom",
      "outputs": [],
      "stateMutability": "nonpayable",
      "type": "function"
    },
    {
      "inputs": [],
      "name": "decimals",
      "outputs": [
        {
          "internalType": "uint8",
          "name": "",
          "type": "uint8"
        }
      ],
      "stateMutability": "pure",
      "type": "function"
    },
    {
      "inputs": [],
      "name": "eip712Domain",
      "outputs": [
        {
          "internalType": "bytes1",
          "name": "fields",
          "type": "bytes1"
        },
        {
          "internalType": "string",
          "name": "name",
          "type": "string"
        },
        {
          "internalType": "string",
          "name": "version",
          "type": "string"
        },
        {
          "internalType": "uint256",
          "name": "chainId",
          "type": "uint256"
        },
        {
          "internalType": "address",
          "name": "verifyingContract",
          "type": "address"
        },
        {
          "internalType": "bytes32",
          "name": "salt",
          "type": "bytes32"
        },
        {
          "internalType": "uint256[]",
          "name": "extensions",
          "type": "uint256[]"
        }
      ],
      "stateMutability": "view",
      "type": "function"
    },
    {
      "inputs": [
        {
          "internalType": "address",
          "name": "to",
          "type": "address"
        },
        {
          "internalType": "uint256",
          "name": "amount",
          "type": "uint256"
        }
      ],
      "name": "mint",
      "outputs": [],
      "stateMutability": "nonpayable",
      "type": "function"
    },
    {
      "inputs": [],
      "name": "name",
      "outputs": [
        {
          "internalType": "string",
          "name": "",
          "type": "string"
        }
      ],
      "stateMutability": "view",
      "type": "function"
    },
    {
      "inputs": [
        {
          "internalType": "address",
          "name": "owner",
          "type": "address"
        }
      ],
      "name": "nonces",
      "outputs": [
        {
          "internalType": "uint256",
          "name": "",
          "type": "uint256"
        }
      ],
      "stateMutability": "view",
      "type": "function"
    },
    {
      "inputs": [],
      "name": "owner",
      "outputs": [
        {
          "internalType": "address",
          "name": "",
          "type": "address"
        }
      ],
      "stateMutability": "view",
      "type": "function"
    },
    {
      "inputs": [
        {
          "internalType": "address",
          "name": "owner",
          "type": "address"
        },
        {
          "internalType": "address",
          "name": "spender",
          "type": "address"
        },
        {
          "internalType": "uint256",
          "name": "value",
          "type": "uint256"
        },
        {
          "internalType": "uint256",
          "name": "deadline",
          "type": "uint256"
        },
        {
          "internalType": "uint8",
          "name": "v",
          "type": "uint8"
        },
        {
          "internalType": "bytes32",
          "name": "r",
          "type": "bytes32"
        },
        {
          "internalType": "bytes32",
          "name": "s",
          "type": "bytes32"
        }
      ],
      "name": "permit",
      "outputs": [],
      "stateMutability": "nonpayable",
      "type": "function"
    },
    {
      "inputs": [],
      "name": "renounceOwnership",
      "outputs": [],
      "stateMutability": "nonpayable",
      "type": "function"
    },
    {
      "inputs": [],
      "name": "symbol",
      "outputs": [
        {
          "internalType": "string",
          "name": "",
          "type": "string"
        }
      ],
      "stateMutability": "view",
      "type": "function"
    },
    {
      "inputs": [],
      "name": "totalSupply",
      "outputs": [
        {
          "internalType": "uint256",
          "name": "",
          "type": "uint256"
        }
      ],
      "stateMutability": "view",
      "type": "function"
    },
    {
      "inputs": [
        {
          "internalType": "address",
          "name": "to",
          "type": "address"
        },
        {
          "internalType": "uint256",
          "name": "value",
          "type": "uint256"
        }
      ],
      "name": "transfer",
      "outputs": [
        {
          "internalType": "bool",
          "name": "",
          "type": "bool"
        }
      ],
      "stateMutability": "nonpayable",
      "type": "function"
    },
    {
      "inputs": [
        {
          "internalType": "address",
          "name": "from",
          "type": "address"
        },
        {
          "internalType": "address",
          "name": "to",
          "type": "address"
        },
        {
          "internalType": "uint256",
          "name": "value",
          "type": "uint256"
        }
      ],
      "name": "transferFrom",
      "outputs": [
        {
          "internalType": "bool",
          "name": "",
          "type": "bool"
        }
      ],
      "stateMutability": "nonpayable",
      "type": "function"
    },
    {
      "inputs": [
        {
          "internalType": "address",
          "name": "newOwner",
          "type": "address"
        }
      ],
      "name": "transferOwnership",
      "outputs": [],
      "stateMutability": "nonpayable",
      "type": "function"
    }
  ],
  "bytecode": "0x6101606040523480156200001257600080fd5b506040518060400160405280600881526020017f41667269436f696e000000000000000000000000000000000000000000000000815250806040518060400160405280600181526020017f3100000000000000000000000000000000000000000000000000000000000000815250336040518060400160405280600881526020017f41667269436f696e0000000000000000000000000000000000000000000000008152506040518060400160405280600381526020017f41464300000000000000000000000000000000000000000000000000000000008152508160039081620000fe9190620009ac565b508060049081620001109190620009ac565b505050600073ffffffffffffffffffffffffffffffffffffffff168173ffffffffffffffffffffffffffffffffffffffff1603620001885760006040517f1e4fbdf70000000000000000000000000000000000000000000000000000000081526004016200017f919062000ad8565b60405180910390fd5b62000199816200028360201b60201c565b50620001b06006836200034960201b90919060201c565b6101208181525050620001ce6007826200034960201b90919060201c565b6101408181525050818051906020012060e08181525050808051906020012061010081815250504660a081815250506200020d620003a160201b60201c565b608081815250503073ffffffffffffffffffffffffffffffffffffffff1660c08173ffffffffffffffffffffffffffffffffffffffff16815250505050506200027d336012600a62000260919062000c85565b6305f5e10062000271919062000cd6565b620003fe60201b60201c565b62000f94565b6000600560009054906101000a900473ffffffffffffffffffffffffffffffffffffffff16905081600560006101000a81548173ffffffffffffffffffffffffffffffffffffffff021916908373ffffffffffffffffffffffffffffffffffffffff1602179055508173ffffffffffffffffffffffffffffffffffffffff168173ffffffffffffffffffffffffffffffffffffffff167f8be0079c531659141344cd1fd0a4f28419497f9722a3daafe3b4186f6b6457e060405160405180910390a35050565b60006020835110156200036f5762000367836200048b60201b60201c565b90506200039b565b826200038183620004f860201b60201c565b6000019081620003929190620009ac565b5060ff60001b90505b92915050565b60007f8b73c3c69bb8fe3d512ecc4cf759cc79239f7b179b0ffacaa9a75d522b39400f60e051610100514630604051602001620003e395949392919062000d4d565b60405160208183030381529060405280519060200120905090565b600073ffffffffffffffffffffffffffffffffffffffff168273ffffffffffffffffffffffffffffffffffffffff1603620004735760006040517fec442f050000000000000000000000000000000000000000000000000000000081526004016200046a919062000ad8565b60405180910390fd5b62000487600083836200050260201b60201c565b5050565b600080829050601f81511115620004db57826040517f305a27a9000000000000000000000000000000000000000000000000000000008152600401620004d2919062000e39565b60405180910390fd5b805181620004e99062000e8f565b60001c1760001b915050919050565b6000819050919050565b600073ffffffffffffffffffffffffffffffffffffffff168373ffffffffffffffffffffffffffffffffffffffff1603620005585780600260008282546200054b919062000eff565b925050819055506200062e565b60008060008573ffffffffffffffffffffffffffffffffffffffff1673ffffffffffffffffffffffffffffffffffffffff16815260200190815260200160002054905081811015620005e7578381836040517fe450d38c000000000000000000000000000000000000000000000000000000008152600401620005de9392919062000f3a565b60405180910390fd5b8181036000808673ffffffffffffffffffffffffffffffffffffffff1673ffffffffffffffffffffffffffffffffffffffff16815260200190815260200160002081905550505b600073ffffffffffffffffffffffffffffffffffffffff168273ffffffffffffffffffffffffffffffffffffffff1603620006795780600260008282540392505081905550620006c6565b806000808473ffffffffffffffffffffffffffffffffffffffff1673ffffffffffffffffffffffffffffffffffffffff168152602001908152602001600020600082825401925050819055505b8173ffffffffffffffffffffffffffffffffffffffff168373ffffffffffffffffffffffffffffffffffffffff167fddf252ad1be2c89b69c2b068fc378daa952ba7f163c4a11628f55a4df523b3ef8360405162000725919062000f77565b60405180910390a3505050565b600081519050919050565b7f4e487b7100000000000000000000000000000000000000000000000000000000600052604160045260246000fd5b7f4e487b7100000000000000000000000000000000000000000000000000000000600052602260045260246000fd5b60006002820490506001821680620007b457607f821691505b602082108103620007ca57620007c96200076c565b5b50919050565b60008190508160005260206000209050919050565b60006020601f8301049050919050565b600082821b905092915050565b600060088302620008347fffffffffffffffffffffffffffffffffffffffffffffffffffffffffffffffff82620007f5565b620008408683620007f5565b95508019841693508086168417925050509392505050565b6000819050919050565b6000819050919050565b60006200088d62000887620008818462000858565b62000862565b62000858565b9050919050565b6000819050919050565b620008a9836200086c565b620008c1620008b88262000894565b84845462000802565b825550505050565b600090565b620008d8620008c9565b620008e58184846200089e565b505050565b5b818110156200090d5762000901600082620008ce565b600181019050620008eb565b5050565b601f8211156200095c576200092681620007d0565b6200093184620007e5565b8101602085101562000941578190505b620009596200095085620007e5565b830182620008ea565b50505b505050565b600082821c905092915050565b6000620009816000198460080262000961565b1980831691505092915050565b60006200099c83836200096e565b9150826002028217905092915050565b620009b78262000732565b67ffffffffffffffff811115620009d357620009d26200073d565b5b620009df82546200079b565b620009ec82828562000911565b600060209050601f83116001811462000a24576000841562000a0f578287015190505b62000a1b85826200098e565b86555062000a8b565b601f19841662000a3486620007d0565b60005b8281101562000a5e5784890151825560018201915060208501945060208101905062000a37565b8683101562000a7e578489015162000a7a601f8916826200096e565b8355505b6001600288020188555050505b505050505050565b600073ffffffffffffffffffffffffffffffffffffffff82169050919050565b600062000ac08262000a93565b9050919050565b62000ad28162000ab3565b82525050565b600060208201905062000aef600083018462000ac7565b92915050565b7f4e487b7100000000000000000000000000000000000000000000000000000000600052601160045260246000fd5b60008160011c9050919050565b6000808291508390505b600185111562000b835780860481111562000b5b5762000b5a62000af5565b5b600185161562000b6b5780820291505b808102905062000b7b8562000b24565b945062000b3b565b94509492505050565b60008262000b9e576001905062000c71565b8162000bae576000905062000c71565b816001811462000bc7576002811462000bd25762000c08565b600191505062000c71565b60ff84111562000be75762000be662000af5565b5b8360020a91508482111562000c015762000c0062000af5565b5b5062000c71565b5060208310610133831016604e8410600b841016171562000c425782820a90508381111562000c3c5762000c3b62000af5565b5b62000c71565b62000c51848484600162000b31565b9250905081840481111562000c6b5762000c6a62000af5565b5b81810290505b9392505050565b600060ff82169050919050565b600062000c928262000858565b915062000c9f8362000c78565b925062000cce7fffffffffffffffffffffffffffffffffffffffffffffffffffffffffffffffff848462000b8c565b905092915050565b600062000ce38262000858565b915062000cf08362000858565b925082820262000d008162000858565b9150828204841483151762000d1a5762000d1962000af5565b5b5092915050565b6000819050919050565b62000d368162000d21565b82525050565b62000d478162000858565b82525050565b600060a08201905062000d64600083018862000d2b565b62000d73602083018762000d2b565b62000d82604083018662000d2b565b62000d91606083018562000d3c565b62000da0608083018462000ac7565b9695505050505050565b600082825260208201905092915050565b60005b8381101562000ddb57808201518184015260208101905062000dbe565b60008484015250505050565b6000601f19601f8301169050919050565b600062000e058262000732565b62000e11818562000daa565b935062000e2381856020860162000dbb565b62000e2e8162000de7565b840191505092915050565b6000602082019050818103600083015262000e55818462000df8565b905092915050565b600081519050919050565b6000819050602082019050919050565b600062000e86825162000d21565b80915050919050565b600062000e9c8262000e5d565b8262000ea88462000e68565b905062000eb58162000e78565b9250602082101562000ef85762000ef37fffffffffffffffffffffffffffffffffffffffffffffffffffffffffffffffff83602003600802620007f5565b831692505b5050919050565b600062000f0c8262000858565b915062000f198362000858565b925082820190508082111562000f345762000f3362000af5565b5b92915050565b600060608201905062000f51600083018662000ac7565b62000f60602083018562000d3c565b62000f6f604083018462000d3c565b949350505050565b600060208201905062000f8e600083018462000d3c565b92915050565b60805160a05160c05160e0516101005161012051610140516121a262000fef6000396000610ee701526000610eac0152600061141f015260006113fe01526000610b5601526000610bac01526000610bd501526121a26000f3fe608060405234801561001057600080fd5b50600436106101215760003560e01c8063715018a6116100ad57806395d89b411161007157806395d89b41146102fe578063a9059cbb1461031c578063d505accf1461034c578063dd62ed3e14610368578063f2fde38b1461039857610121565b8063715018a61461026657806379cc6790146102705780637ecebe001461028c57806384b0196e146102bc5780638da5cb5b146102e057610121565b8063313ce567116100f4578063313ce567146101c25780633644e515146101e057806340c10f19146101fe57806342966c681461021a57806370a082311461023657610121565b806306fdde0314610126578063095ea7b31461014457806318160ddd1461017457806323b872dd14610192575b600080fd5b61012e6103b4565b60405161013b919061190c565b60405180910390f35b61015e600480360381019061015991906119c7565b610446565b60405161016b9190611a22565b60405180910390f35b61017c610469565b6040516101899190611a4c565b60405180910390f35b6101ac60048036038101906101a79190611a67565b610473565b6040516101b99190611a22565b60405180910390f35b6101ca6104a2565b6040516101d79190611ad6565b60405180910390f35b6101e86104ab565b6040516101f59190611b0a565b60405180910390f35b610218600480360381019061021391906119c7565b6104ba565b005b610234600480360381019061022f9190611b25565b6104d0565b005b610250600480360381019061024b9190611b52565b6104e4565b60405161025d9190611a4c565b60405180910390f35b61026e61052c565b005b61028a600480360381019061028591906119c7565b610540565b005b6102a660048036038101906102a19190611b52565b610560565b6040516102b39190611a4c565b60405180910390f35b6102c4610572565b6040516102d79796959493929190611c87565b60405180910390f35b6102e861061c565b6040516102f59190611d0b565b60405180910390f35b610306610646565b604051610313919061190c565b60405180910390f35b610336600480360381019061033191906119c7565b6106d8565b6040516103439190611a22565b60405180910390f35b61036660048036038101906103619190611d7e565b61075a565b005b610382600480360381019061037d9190611e20565b6108a2565b60405161038f9190611a4c565b60405180910390f35b6103b260048036038101906103ad9190611b52565b610929565b005b6060600380546103c390611e8f565b80601f01602080910402602001604051908101604052809291908181526020018280546103ef90611e8f565b801561043c5780601f106104115761010080835404028352916020019161043c565b820191906000526020600020905b81548152906001019060200180831161041f57829003601f168201915b5050505050905090565b6000806104516109af565b905061045e8185856109b7565b600191505092915050565b6000600254905090565b60008061047e6109af565b905061048b8582856109c9565b610496858585610a5e565b60019150509392505050565b60006012905090565b60006104b5610b52565b905090565b6104c2610c09565b6104cc8282610c90565b5050565b6104e16104db6109af565b82610d12565b50565b60008060008373ffffffffffffffffffffffffffffffffffffffff1673ffffffffffffffffffffffffffffffffffffffff168152602001908152602001600020549050919050565b610534610c09565b61053e6000610d94565b565b6105528261054c6109af565b836109c9565b61055c8282610d12565b5050565b600061056b82610e5a565b9050919050565b600060608060008060006060610586610ea3565b61058e610ede565b46306000801b600067ffffffffffffffff8111156105af576105ae611ec0565b5b6040519080825280602002602001820160405280156105dd5781602001602082028036833780820191505090505b507f0f00000000000000000000000000000000000000000000000000000000000000959493929190965096509650965096509650965090919293949596565b6000600560009054906101000a900473ffffffffffffffffffffffffffffffffffffffff16905090565b60606004805461065590611e8f565b80601f016020809104026020016040519081016040528092919081815260200182805461068190611e8f565b80156106ce5780601f106106a3576101008083540402835291602001916106ce565b820191906000526020600020905b8154815290600101906020018083116106b157829003601f168201915b5050505050905090565b60008073ffffffffffffffffffffffffffffffffffffffff168373ffffffffffffffffffffffffffffffffffffffff1603610748576040517f08c379a000000000000000000000000000000000000000000000000000000000815260040161073f90611f61565b60405180910390fd5b6107528383610f19565b905092915050565b8342111561079f57836040517f627913020000000000000000000000000000000000000000000000000000000081526004016107969190611a4c565b60405180910390fd5b60007f6e71edae12b1b97f4d1f60370fef10105fa2faae0126114a169c64845d6126c98888886107ce8c610f3c565b896040516020016107e496959493929190611f81565b604051602081830303815290604052805190602001209050600061080782610f93565b9050600061081782878787610fad565b90508973ffffffffffffffffffffffffffffffffffffffff168173ffffffffffffffffffffffffffffffffffffffff161461088b57808a6040517f4b800e46000000000000000000000000000000000000000000000000000000008152600401610882929190611fe2565b60405180910390fd5b6108968a8a8a6109b7565b50505050505050505050565b6000600160008473ffffffffffffffffffffffffffffffffffffffff1673ffffffffffffffffffffffffffffffffffffffff16815260200190815260200160002060008373ffffffffffffffffffffffffffffffffffffffff1673ffffffffffffffffffffffffffffffffffffffff16815260200190815260200160002054905092915050565b610931610c09565b600073ffffffffffffffffffffffffffffffffffffffff168173ffffffffffffffffffffffffffffffffffffffff16036109a35760006040517f1e4fbdf700000000000000000000000000000000000000000000000000000000815260040161099a9190611d0b565b60405180910390fd5b6109ac81610d94565b50565b600033905090565b6109c48383836001610fdd565b505050565b60006109d584846108a2565b90507fffffffffffffffffffffffffffffffffffffffffffffffffffffffffffffffff811015610a585781811015610a48578281836040517ffb8f41b2000000000000000000000000000000000000000000000000000000008152600401610a3f9392919061200b565b60405180910390fd5b610a5784848484036000610fdd565b5b50505050565b600073ffffffffffffffffffffffffffffffffffffffff168373ffffffffffffffffffffffffffffffffffffffff1603610ad05760006040517f96c6fd1e000000000000000000000000000000000000000000000000000000008152600401610ac79190611d0b565b60405180910390fd5b600073ffffffffffffffffffffffffffffffffffffffff168273ffffffffffffffffffffffffffffffffffffffff1603610b425760006040517fec442f05000000000000000000000000000000000000000000000000000000008152600401610b399190611d0b565b60405180910390fd5b610b4d8383836111b4565b505050565b60007f000000000000000000000000000000000000000000000000000000000000000073ffffffffffffffffffffffffffffffffffffffff163073ffffffffffffffffffffffffffffffffffffffff16148015610bce57507f000000000000000000000000000000000000000000000000000000000000000046145b15610bfb577f00000000000000000000000000000000000000000000000000000000000000009050610c06565b610c036113d9565b90505b90565b610c116109af565b73ffffffffffffffffffffffffffffffffffffffff16610c2f61061c565b73ffffffffffffffffffffffffffffffffffffffff1614610c8e57610c526109af565b6040517f118cdaa7000000000000000000000000000000000000000000000000000000008152600401610c859190611d0b565b60405180910390fd5b565b600073ffffffffffffffffffffffffffffffffffffffff168273ffffffffffffffffffffffffffffffffffffffff1603610d025760006040517fec442f05000000000000000000000000000000000000000000000000000000008152600401610cf99190611d0b565b60405180910390fd5b610d0e600083836111b4565b5050565b600073ffffffffffffffffffffffffffffffffffffffff168273ffffffffffffffffffffffffffffffffffffffff1603610d845760006040517f96c6fd1e000000000000000000000000000000000000000000000000000000008152600401610d7b9190611d0b565b60405180910390fd5b610d90826000836111b4565b5050565b6000600560009054906101000a900473ffffffffffffffffffffffffffffffffffffffff16905081600560006101000a81548173ffffffffffffffffffffffffffffffffffffffff021916908373ffffffffffffffffffffffffffffffffffffffff1602179055508173ffffffffffffffffffffffffffffffffffffffff168173ffffffffffffffffffffffffffffffffffffffff167f8be0079c531659141344cd1fd0a4f28419497f9722a3daafe3b4186f6b6457e060405160405180910390a35050565b6000600860008373ffffffffffffffffffffffffffffffffffffffff1673ffffffffffffffffffffffffffffffffffffffff168152602001908152602001600020549050919050565b6060610ed960067f000000000000000000000000000000000000000000000000000000000000000061146f90919063ffffffff16565b905090565b6060610f1460077f000000000000000000000000000000000000000000000000000000000000000061146f90919063ffffffff16565b905090565b600080610f246109af565b9050610f31818585610a5e565b600191505092915050565b6000600860008373ffffffffffffffffffffffffffffffffffffffff1673ffffffffffffffffffffffffffffffffffffffff1681526020019081526020016000206000815480929190600101919050559050919050565b6000610fa6610fa0610b52565b8361151f565b9050919050565b600080600080610fbf88888888611560565b925092509250610fcf8282611654565b829350505050949350505050565b600073ffffffffffffffffffffffffffffffffffffffff168473ffffffffffffffffffffffffffffffffffffffff160361104f5760006040517fe602df050000000000000000000000000000000000000000000000000000000081526004016110469190611d0b565b60405180910390fd5b600073ffffffffffffffffffffffffffffffffffffffff168373ffffffffffffffffffffffffffffffffffffffff16036110c15760006040517f94280d620000000000000000000000000000000000000000000000000000000081526004016110b89190611d0b565b60405180910390fd5b81600160008673ffffffffffffffffffffffffffffffffffffffff1673ffffffffffffffffffffffffffffffffffffffff16815260200190815260200160002060008573ffffffffffffffffffffffffffffffffffffffff1673ffffffffffffffffffffffffffffffffffffffff1681526020019081526020016000208190555080156111ae578273ffffffffffffffffffffffffffffffffffffffff168473ffffffffffffffffffffffffffffffffffffffff167f8c5be1e5ebec7d5bd14f71427d1e84f3dd0314c0f7b2291e5b200ac8c7c3b925846040516111a59190611a4c565b60405180910390a35b50505050565b600073ffffffffffffffffffffffffffffffffffffffff168373ffffffffffffffffffffffffffffffffffffffff16036112065780600260008282546111fa9190612071565b925050819055506112d9565b60008060008573ffffffffffffffffffffffffffffffffffffffff1673ffffffffffffffffffffffffffffffffffffffff16815260200190815260200160002054905081811015611292578381836040517fe450d38c0000000000000000000000000000000000000000000000000000000081526004016112899392919061200b565b60405180910390fd5b8181036000808673ffffffffffffffffffffffffffffffffffffffff1673ffffffffffffffffffffffffffffffffffffffff16815260200190815260200160002081905550505b600073ffffffffffffffffffffffffffffffffffffffff168273ffffffffffffffffffffffffffffffffffffffff1603611322578060026000828254039250508190555061136f565b806000808473ffffffffffffffffffffffffffffffffffffffff1673ffffffffffffffffffffffffffffffffffffffff168152602001908152602001600020600082825401925050819055505b8173ffffffffffffffffffffffffffffffffffffffff168373ffffffffffffffffffffffffffffffffffffffff167fddf252ad1be2c89b69c2b068fc378daa952ba7f163c4a11628f55a4df523b3ef836040516113cc9190611a4c565b60405180910390a3505050565b60007f8b73c3c69bb8fe3d512ecc4cf759cc79239f7b179b0ffacaa9a75d522b39400f7f00000000000000000000000000000000000000000000000000000000000000007f000000000000000000000000000000000000000000000000000000000000000046306040516020016114549594939291906120a5565b60405160208183030381529060405280519060200120905090565b606060ff60001b831461148c57611485836117b8565b9050611519565b81805461149890611e8f565b80601f01602080910402602001604051908101604052809291908181526020018280546114c490611e8f565b80156115115780601f106114e657610100808354040283529160200191611511565b820191906000526020600020905b8154815290600101906020018083116114f457829003601f168201915b505050505090505b92915050565b60006040517f190100000000000000000000000000000000000000000000000000000000000081528360028201528260228201526042812091505092915050565b60008060007f7fffffffffffffffffffffffffffffff5d576e7357a4501ddfe92f46681b20a08460001c11156115a057600060038592509250925061164a565b6000600188888888604051600081526020016040526040516115c594939291906120f8565b6020604051602081039080840390855afa1580156115e7573d6000803e3d6000fd5b505050602060405103519050600073ffffffffffffffffffffffffffffffffffffffff168173ffffffffffffffffffffffffffffffffffffffff160361163b57600060016000801b9350935093505061164a565b8060008060001b935093509350505b9450945094915050565b600060038111156116685761166761213d565b5b82600381111561167b5761167a61213d565b5b03156117b457600160038111156116955761169461213d565b5b8260038111156116a8576116a761213d565b5b036116df576040517ff645eedf00000000000000000000000000000000000000000000000000000000815260040160405180910390fd5b600260038111156116f3576116f261213d565b5b8260038111156117065761170561213d565b5b0361174b578060001c6040517ffce698f70000000000000000000000000000000000000000000000000000000081526004016117429190611a4c565b60405180910390fd5b60038081111561175e5761175d61213d565b5b8260038111156117715761177061213d565b5b036117b357806040517fd78bce0c0000000000000000000000000000000000000000000000000000000081526004016117aa9190611b0a565b60405180910390fd5b5b5050565b606060006117c58361182c565b90506000602067ffffffffffffffff8111156117e4576117e3611ec0565b5b6040519080825280601f01601f1916602001820160405280156118165781602001600182028036833780820191505090505b5090508181528360208201528092505050919050565b60008060ff8360001c169050601f811115611873576040517fb3512b0c00000000000000000000000000000000000000000000000000000000815260040160405180910390fd5b80915050919050565b600081519050919050565b600082825260208201905092915050565b60005b838110156118b657808201518184015260208101905061189b565b60008484015250505050565b6000601f19601f8301169050919050565b60006118de8261187c565b6118e88185611887565b93506118f8818560208601611898565b611901816118c2565b840191505092915050565b6000602082019050818103600083015261192681846118d3565b905092915050565b600080fd5b600073ffffffffffffffffffffffffffffffffffffffff82169050919050565b600061195e82611933565b9050919050565b61196e81611953565b811461197957600080fd5b50565b60008135905061198b81611965565b92915050565b6000819050919050565b6119a481611991565b81146119af57600080fd5b50565b6000813590506119c18161199b565b92915050565b600080604083850312156119de576119dd61192e565b5b60006119ec8582860161197c565b92505060206119fd858286016119b2565b9150509250929050565b60008115159050919050565b611a1c81611a07565b82525050565b6000602082019050611a376000830184611a13565b92915050565b611a4681611991565b82525050565b6000602082019050611a616000830184611a3d565b92915050565b600080600060608486031215611a8057611a7f61192e565b5b6000611a8e8682870161197c565b9350506020611a9f8682870161197c565b9250506040611ab0868287016119b2565b9150509250925092565b600060ff82169050919050565b611ad081611aba565b82525050565b6000602082019050611aeb6000830184611ac7565b92915050565b6000819050919050565b611b0481611af1565b82525050565b6000602082019050611b1f6000830184611afb565b92915050565b600060208284031215611b3b57611b3a61192e565b5b6000611b49848285016119b2565b91505092915050565b600060208284031215611b6857611b6761192e565b5b6000611b768482850161197c565b91505092915050565b60007fff0000000000000000000000000000000000000000000000000000000000000082169050919050565b611bb481611b7f565b82525050565b611bc381611953565b82525050565b600081519050919050565b600082825260208201905092915050565b6000819050602082019050919050565b611bfe81611991565b82525050565b6000611c108383611bf5565b60208301905092915050565b6000602082019050919050565b6000611c3482611bc9565b611c3e8185611bd4565b9350611c4983611be5565b8060005b83811015611c7a578151611c618882611c04565b9750611c6c83611c1c565b925050600181019050611c4d565b5085935050505092915050565b600060e082019050611c9c600083018a611bab565b8181036020830152611cae81896118d3565b90508181036040830152611cc281886118d3565b9050611cd16060830187611a3d565b611cde6080830186611bba565b611ceb60a0830185611afb565b81810360c0830152611cfd8184611c29565b905098975050505050505050565b6000602082019050611d206000830184611bba565b92915050565b611d2f81611aba565b8114611d3a57600080fd5b50565b600081359050611d4c81611d26565b92915050565b611d5b81611af1565b8114611d6657600080fd5b50565b600081359050611d7881611d52565b92915050565b600080600080600080600060e0888a031215611d9d57611d9c61192e565b5b6000611dab8a828b0161197c565b9750506020611dbc8a828b0161197c565b9650506040611dcd8a828b016119b2565b9550506060611dde8a828b016119b2565b9450506080611def8a828b01611d3d565b93505060a0611e008a828b01611d69565b92505060c0611e118a828b01611d69565b91505092959891949750929550565b60008060408385031215611e3757611e3661192e565b5b6000611e458582860161197c565b9250506020611e568582860161197c565b9150509250929050565b7f4e487b7100000000000000000000000000000000000000000000000000000000600052602260045260246000fd5b60006002820490506001821680611ea757607f821691505b602082108103611eba57611eb9611e60565b5b50919050565b7f4e487b7100000000000000000000000000000000000000000000000000000000600052604160045260246000fd5b7f41667269436f696e3a207472616e7366657220746f207a65726f20616464726560008201527f7373000000000000000000000000000000000000000000000000000000000000602082015250565b6000611f4b602283611887565b9150611f5682611eef565b604082019050919050565b60006020820190508181036000830152611f7a81611f3e565b9050919050565b600060c082019050611f966000830189611afb565b611fa36020830188611bba565b611fb06040830187611bba565b611fbd6060830186611a3d565b611fca6080830185611a3d565b611fd760a0830184611a3d565b979650505050505050565b6000604082019050611ff76000830185611bba565b6120046020830184611bba565b9392505050565b60006060820190506120206000830186611bba565b61202d6020830185611a3d565b61203a6040830184611a3d565b949350505050565b7f4e487b7100000000000000000000000000000000000000000000000000000000600052601160045260246000fd5b600061207c82611991565b915061208783611991565b925082820190508082111561209f5761209e612042565b5b92915050565b600060a0820190506120ba6000830188611afb565b6120c76020830187611afb565b6120d46040830186611afb565b6120e16060830185611a3d565b6120ee6080830184611bba565b9695505050505050565b600060808201905061210d6000830187611afb565b61211a6020830186611ac7565b6121276040830185611afb565b6121346060830184611afb565b95945050505050565b7f4e487b7100000000000000000000000000000000000000000000000000000000600052602160045260246000fdfea2646970667358221220a39681175a766702282ad37834a70308d57b550739dd408dfac9abd79eb40d9264736f6c63430008140033",
  "linkReferences": {},
  "deployedLinkReferences": {}
}